:040000000200B63212
:03000B00024A1096
:0100130032BA
:01001B0032B2
:03002300024C2468
:01002B0032A2
:01003300329A
:01003B003292
:03004300024C8BE1
:100048000000E2FBEAF2802C0000E0FBEAF08024EA
:10005800E6B50202EBF62200E2B50202EBF222005C
:10006800E0B50202EBF02230F6E0A88220F5D3EAF0
:10007800C6F582228B822230F6E6A88220F5D98046
:01008800CFA8
:0301A000020089D1
:030089000201A3CE
:1001A3001234CD124CF812494612482E75820012B1
:1001B30021401221E2124D0DE582601A12214CAF4B
:1001C30082758201C00712215375824D12215FD0BF
:1001D300078F8212215312339A121C1312324E12BA
:1001E30043359000AFE0F5821244519000B1E090A6
:1001F3000389F0E4A3F090000A1252A312439E1263
:100203001AC89000B5E0FE7F009000B4E07C004285
:1002130007EC42069000B7E0FC7D009000B6E0FBDF
:100223007A00900239EB4DF0EA4CA3F08F828E8373
:10023300122FCA9000A2E0900389F0E4A3F0900388
:10024300E81252A3AE82AF839000A6E0FD90013A7C
:10025300E0FB7C00900139E07A004204EA4203901B
:100263000279EDF090027AECF0EBA3F08E828F83AB
:100273001234E61234A31202F112484BAC82AD835E
:10028300AEF0FF900001ECF0EDA3F0EEA3F0EFA3CE
:10029300F012484BAC82AD83AEF0FFC007C006C07E
:1002A30005C00412329E1235FCD004D005D006D00E
:1002B30007900001E0F8A3E0F9A3E0FAA3E0FBC391
:1002C300EC98ED99EE9AEF9B401F90000174052C7A
:1002D300F0E43DA3F0E43EA3F0E43FA3F0121B5B84
:0E02E30012439D12225C1204A2124D0980A348
:10010F0090003EE4F0900049E4F09000597410F034
:10011F007427A3F0E4A3F0A3F090005DF0900063C8
:10012F007410F07427A3F0E4A3F0A3F0900067F02D
:10013F00900068747DF0E4A3F0A3F0A3F090006C3E
:10014F007410F07427A3F0E4A3F0A3F0900075E40B
:10015F00F0A3F0A3F0A3F0900079F090007AF09064
:10016F00007BF0900083E4F0900084F0A3F0A3F004
:10017F00A3F090008CE4F090008DF0A3F0A3F0A317
:01018F00F07F
:1002F1001236091234BB9000ACE0FFBF0203D38079
:1003010001C39200E433F5821234BE9000A6E0905E
:100311000389F0E4A3F09000641252A3AE82AF838C
:1003210090000DEEF0EFA3F09000A5E0FC7D0090B1
:1003310000A4E07A004205EA4204EDC39EFDEC9F71
:10034100FC900389EDF0ECA3F0900054C007C006C7
:10035100C005C0041252A3AA82AB839003617464E6
:10036100F0E4A3F08A828B83124D1FAA82AB83D063
:1003710004D005ECC40354F8CDC403CD6DCD54F8BD
:10038100CD6DFC9003617464F0E4A3F08D828C83E5
:10039100C003C002124D1FAC82AD83D002D003D086
:1003A10006D007EC2EFCED3FFD900011ECF0EDA323
:1003B100F0900389EAF0EBA3F090000AC005C004B5
:1003C1001252A3AE82AF839003617464F0E4A3F090
:1003D1008E828F83124D1FAE82AF83D004D005EE83
:1003E1002CFEEF3DFF90000FEEF0EFA3F090000721
:1003F100E4F0A3F0900009F0A3F0A3F0A3F09000C3
:1004010025F0900026F09000A2E0900389F0E4A38B
:10041100F090000A1252A3AE82AF839000A3E09045
:100421000361F0E4A3F08E828F83124D1FAE82AF81
:1004310083900027EEF0EFA3F0900029E4F0A3F001
:10044100A3F0A3F0758203121930AE82AF8390033B
:1004510089EEF0EFA3F090000A1252A3AE82AF83AF
:10046100900022EEF0EFA3F09000247401F09000D0
:1004710006E4F09000A7E0F58212193012074390CC
:1004810000C0E0F58212062F1217A39000BFE0FF13
:10049100BF0D0D1246C5E58260067582010207187F
:1004A1002290002DE4F0900016E090002EF0123022
:1004B10072123240AF8290002FE4F0900030F0C011
:1004C1000712171DE582D007600790002DE4F08028
:1004D10076900005E0FEBE0A0E9000AAE06008904A
:1004E100002D740AF08060900036EFF090002D75B9
:1004F100F000C00712087CD00790002DE090002F7B
:1005010024FFE433F090003AEFF090002D75F000F5
:10051100C007120A66D00790003FEFF090002D75DA
:10052100F000C007120B66AE82D007900030EEF0EB
:10053100EE6014900013E030E00D900013E030E520
:100541000690002E7464F090002FE0FE900030E0E1
:10055100FD900043EFF0900044EEF0900045EDF087
:1005610090002D75F000120BFCAF8290002D75F0FC
:1005710000C007120EDFAE8290002D75F000C0069C
:100581001210FEAD8290002D75F000C00512139B74
:10059100AC82D005D006D007EF700DEE700AED7079
:1005A10007EC7004F523800375230190002D75F08D
:1005B10000C0041214C5AF82D004E523700A900074
:1005C10030E06004C2018002D20190007FA201E408
:1005D10033F090002D75F000C007C004121506D04D
:1005E10004D007EF7003EC6004C2018002D20190D5
:1005F1000088A201E433F090002D75F0001215F38C
:1006010090002EE0F58212362D90002DE0F5821239
:10061100365990002DE06005123606800312360926
:100621009000ACE0FFBF01030234BB0234B8E582A5
:10063100900031F0900005E0FF900031E0FEEFB551
:10064100060122BF0A0C9000AAE060069003E8129E
:10065100176B900031E0FF900005F090014CEFF036
:10066100E4A3F07582831221880217A3E58290002A
:1006710032F09000BFE0FFBF02030206D1900005F7
:10068100E0FE7006BF03030206D1BE0105BF0402EE
:10069100803EBE0205BF05028036BE0305BF0602CD
:1006A100802EBE0405BF07028026BE0505BF0802D5
:1006B100801EBE0605BF09028016BE0705BF0A02DD
:1006C100800EBE0805BF0B028006BE0915BF0C12C5
:1006D100900032E0600675820102071875820002FF
:1006E10007189000ACE0702E900393E0FF90003269
:1006F100E0FEEFB5060122900393EEF090014CEE7F
:10070100F0EE3395E0A3F0758286C006122188D001
:10071100068E820234BE22E582900033F0900006FC
:10072100E0FF900033E0FEEFB5060122900006EEF7
:10073100F090014CEEF0E4A3F0758284122188025E
:1007410017A3AF83E582900034F0EFA3F090000788
:10075100E0FEA3E0FF900034E0FCA3E0FDEEB50471
:1007610005EFB5050122900007ECF0EDA3F08C0236
:100771008D037E007F009000BAE090038BF0E4A32C
:10078100F0A3F0A3F08A828B838EF0EFC005C00442
:100791001252C3AA82AB83AEF0FF900368740AF0D1
:1007A100E4A3F0A3F0A3F08A828B838EF0EF124DC5
:1007B100ACAA82AB83AEF0FFD004D005900009EA69
:1007C100F0EBA3F0EEA3F0EFA3F090014CECF0ED11
:1007D100A3F07582851221880217A3900005E0F528
:1007E1008222900393E0F58222123613AE82E583D2
:1007F10030E50475820822EE30E20475821222EEA1
:1008010030E50475820922123053E5827004758245
:1008110005221244C0E582700475822522900026CB
:10082100E0FFC374D58FF063F08095F050047582BA
:100831001122900025E0FFC374D58FF063F08095FD
:10084100F05004758210221246C5E582600475825B
:10085100032275820122900025E0FF900026E0FE30
:10086100C364808FF063F08095F0500280028E07A0
:10087100EF30E704758200228F8222AFF0AE83E56C
:1008810082900037F0EEA3F0EFA3F0900013E02088
:10089100E00122900013E030E40122124407E582D6
:1008A1007001221243F6AE82AF839000B0E0FD7C6E
:1008B10000C3ED9EEC9F400122900013E030E35213
:1008C100900036E0FF7E00900014E0900389F0E490
:1008D100A3F08F828E831252A3AE82AF8390038FD7
:1008E1007464F0E4A3F08E828F83125388AE8290F9
:1008F1000037E0FCA3E0FDA3E0FF8C828D838FF045
:10090100125571C39E4001228C828D838FF0EE02BD
:100911005288900014E0FF900037E0FCA3E0FDA3B3
:10092100E0FE8C828D838EF0125571C39F500D9025
:100931000014E08C828D838EF01252889000B2E018
:10094100FFBF6400400122900037E0FDA3E0FEA359
:10095100E0FF8D828E838FF0125571FD90001DE0B6
:10096100C39D4001221243CCAE82AF8390001EE0B2
:10097100FCA3E0FDC3EC9EED9F4001221243CCAEEF
:1009810082AF83900020E0FCA3E0FDC3EE9CEF9DCD
:1009910050091243CCAE82AF8380048C068D079040
:1009A1000037E0FBA3E0FCA3E0FD8E248F25752634
:1009B1000075270090001EE0F528A3E0F529A9287D
:1009C100AA29E4FEFFE524C399F524E5259AF52536
:1009D100E5269EF526E5279FF52790001DE0F88B7B
:1009E100828C838DF0125571FEF97A00E8C399F873
:1009F100EF9AFF90038BE8F0EFA3F0EF3395E0A3BC
:100A0100F0A3F08524828525838526F0E527C0069D
:100A1100C005C004C0031252C38582248583258585
:100A2100F026F527900020E0FAA3E0FFEAC395281D
:100A3100FAEF9529FF900368EAF0EFA3F0E4A3F041
:100A4100A3F08524828525838526F0E527124DAC08
:100A5100A882D003D004D005D006EE288B828C83E7
:100A61008DF0025288AFF0AE83E58290003BF0EE4C
:100A7100A3F0EFA3F0900013E020E2012212305323
:100A8100E5827001221246C5E582600D9000247452
:100A910001F090003EF0020B2012442CE582601B15
:100AA1001243F6AE82AF83C3740C9EE49F500C9048
:100AB10000247401F090003EF08064900024E0FF77
:100AC100E0701890003EE0701290003AE0600C90E7
:100AD10000247401F090003EF08044EF60309000FB
:100AE1003EE0702A90003AE024CD5022124407E5FE
:100AF10082601B1243F6AE82AF83C3740C9EE49FE7
:100B0100500C900024E4F090003E04F0801190001D
:100B11003EE0600B90003AE0700590003EE4F090FA
:100B21000024E0601590003BE0FDA3E0FEA3E0FFA0
:100B31008D828E838FF0E4025288900014E0FF9042
:100B4100003BE0FCA3E0FDA3E0FE8C828D838EF0F0
:100B5100125571C39F500D900014E08C828D838ECD
:100B6100F002528822AFF0AE83E582900040F0EEB1
:100B7100A3F0EFA3F0900013E030E17B90003FE0A1
:100B8100FFE06073C007123053E582D00760687ED2
:100B910000900015E0FD7C009000B8E0FBF97A00C0
:100BA100900389EDC399F0EC9AA3F08F828E83C0F4
:100BB100031252A3AE82AF8390038F7464F0E4A357
:100BC100F08E828F83125388AE82D003EB2EFE907B
:100BD1000040E0FCA3E0FDA3E0FF8C828D838FF059
:100BE100125571FBC3EE9B400E8C828D838FF0EE0C
:100BF1001252887582012275820022AFF0AE83E520
:100C010082900046F0EEA3F0EFA3F09000A8E07010
:100C110003F58222900044E0701F900043E06019C8
:100C21009000BAE060139000B9E0FFBF0102800EAE
:100C3100BF0206900006E06005752A008005752A4E
:100C4100018018900045E06012900013E0540160AB
:100C51000A900013E0232354017005752B008003D3
:100C6100752B01E52A601E900009E0FCA3E0FDA3BD
:100C7100E0FEA3E0FF90004AECF0EDA3F0EEA3F05C
:100C8100EFA3F08049E52B6029900007E0FEA3E087
:100C9100FF900389EEF0EFA3F090000A1252A3AE89
:100CA10082AF8390004AEEF0EFA3F0E4A3F0A3F04B
:100CB100801C900019E0FCA3E0FDA3E0FEA3E0FF8F
:100CC10090004AECF0EDA3F0EEA3F0EFA3F090005A
:100CD1004AE0FCA3E0FDA3E0FEA3E0FF900022E0D8
:100CE100FAA3E0FB8A008B017A007B0090004EECB6
:100CF100C398F0ED99A3F0EE9AA3F0EF9BA3F090C7
:100D01000052E82CF0E93DA3F0EA3EA3F0EB3FA34B
:100D1100F0C3E49CE49DE49E74808FF063F08095C1
:100D2100F04003020EDB124472AE82AF838E048F59
:100D31000590004EE0F52CA3E0F52DA3E0F52EA3E0
:100D4100E0F52F8C02EDFB3395E0FCFDC3EA952C19
:100D5100EB952DEC952EED6480852FF063F0809559
:100D6100F0501D900049E07003020EDB900049E451
:100D7100F090014CF0A3F0758289122188020EDBFC
:100D8100900049E0701B9000497401F090014CF013
:100D9100E4A3F0758289C007C006122188D006D06D
:100DA100078E048F05900052E0F538A3E0F539A3D2
:100DB100E0F53AA3E0F53BC006C007ED3395E0FE50
:100DC100FFC3E5389CE5399DE53A9EE53B64808F9C
:100DD100F063F08095F0D007D0065033900046E0E4
:100DE100F52CA3E0F52DA3E0F52E852C82852D832E
:100DF100852EF012557124FE4003020EDB852C82F4
:100E0100852D83852EF07401125288758201228E00
:100E11002CEFF52D3395E0F52EF52F90004EE0F5F2
:100E210030A3E0F531A3E0F532A3E0F533E52CC3BF
:100E31009530F534E52D9531F535E52E9532F536BC
:100E4100E52F9533F537900046E0F52CA3E0F52D1D
:100E5100A3E0F52E852C82852D83852EF012557108
:100E6100FFFD7E007401C39DFDE49EFE90038BEDAA
:100E7100F0EEA3F0EE3395E0A3F0A3F08534828584
:100E810035838536F0E537C0071252C3AB82AC8398
:100E9100ADF0FED007900368E538C39530F0E53931
:100EA1009531A3F0E53A9532A3F0E53B9533A3F0F4
:100EB1008B828C838DF0EEC007124DACAB82D007D4
:100EC1008F06EE2BFBC39F5011852C82852D8385C8
:100ED1002EF0EB1252887582012275820022AFF04A
:100EE100AE83E582900056F0EEA3F0EFA3F012443A
:100EF100C4AE82AF838E048F0590038F7464F0E4D7
:100F0100A3F08C828D83C007C006125388AC8290F7
:100F11000025ECF01246C1AC82AD838C028D0390AA
:100F2100038F7464F0E4A3F08A828B83C005C0044C
:100F3100125388AA82D004D005D006D0079000268B
:100F4100EAF0C3EC9EED64808FF063F08095F04091
:100F5100048C068D0790005EEEF0EFA3F090002563
:100F6100E0FDC3EA64808DF063F08095F040028A71
:100F710005C007C006C00512214CE582D005D00688
:100F8100D007700302101B9000ABE0700302101B2E
:100F9100C005C007C006C00512484B85823C858349
:100FA1003D85F03EF53FD005D006D007900059E0D1
:100FB100F8A3E0FBA3E0FCA3E0FDC3E8953CEB95BF
:100FC1003DEC953EED953FD005504FC007C006C0A2
:100FD1000512484BA982AA83ABF0FC90005974100A
:100FE10029F074273AA3F0E43BA3F0E43CA3F0908A
:100FF1000026E0FC3395E08C037C00900025E0F9AD
:101001003395E0FA90014CE94CF0EA4BA3F075827C
:1010110087122188D005D006D007C3ED648094D013
:1010210050030210E390005DE0701B90005D7401BD
:10103100F090014CF0E4A3F0758288C007C006125D
:101041002188D006D007C374349E74A18FF063F059
:101051008095F0500A90005E7434F07421A3F090F2
:10106100005EE0FEA3E0FF3395E0FDFCEE24C0FE50
:10107100EF34E0FFED34FFFDEC34FFFC90038BEE29
:10108100F0EFA3F0EDA3F0ECA3F090FFB074FFF547
:10109100F01252C3AC82AD83AEF0FF90036874F4DA
:1010A100F07401A3F0E4A3F0A3F08C828D838EF0A1
:1010B100EF124DACAC8274642CFC900056E0FDA3A1
:1010C100E0FEA3E0FF8D828E838FF0125571FBC38A
:1010D100EC9B50258D828E838FF0EC1252887582A5
:1010E100012290005DE0601190005DE4F090014C00
:1010F100F0A3F075828812218875820022AFF0AECC
:1011010083E582900060F0EEA3F0EFA3F012484B6C
:10111100AC82AD83AEF0FF900068E0F8A3E0F9A3E4
:10112100E0FAA3E0FBC3E89CE99DEA9EEB9F400344
:1011310002129312484BAC82AD83AEF0FF9000686F
:10114100747D2CF0E43DA3F0E43EA3F0E43FA3F072
:10115100123754AE82AF8390038BEEF0EFA3F0E42D
:10116100A3F0A3F090000AF5F01252C3AC82AD8354
:10117100AEF0FF8C008D018E028F0390006CE0F5C4
:1011810040A3E0F541A3E0F542A3E0F543C3E895B0
:1011910040E99541EA9542EB64808543F063F08034
:1011A10095F05055ECC39540F8ED9541F9EE954217
:1011B100FAEF9543FB9003687408F0E4A3F0A3F001
:1011C100A3F0888289838AF0EBC007C006C005C0FE
:1011D10004124DACA882A983AAF0FBD004D005D09B
:1011E10006D00790006CE82540F0E93541A3F0EA0C
:1011F1003542A3F0EB3543A3F0C007C006C005C0DC
:101201000412214CE582D004D005D006D00770032A
:10121100021293C004C005C006C007C007C006C0C3
:1012210005C00412484BA882A983AAF0FBD004D0C0
:1012310005D006D007900063E0FCA3E0FDA3E0FE2B
:10124100A3E0FFC3EC98ED99EE9AEF9BD007D0068F
:10125100D005D004503CC007C006C005C0041248E8
:101261004BA882A983AAF0FBD004D005D006D007F1
:10127100900063741028F0742739A3F0E43AA3F0C6
:10128100E43BA3F090014CECF0EDA3F075829112D8
:10129100218890006CE0FCA3E0FDA3E0A3E09000B6
:1012A10070ECF0EDA3F090000FE0FEA3E0FFC3EEC1
:1012B1009CEF9D5003021397900067E0701490011A
:1012C1004CECF0EDA3F075828E12218890006774CA
:1012D10001F0900070E0FEA3E0FF90000DE0FCA3A0
:1012E100E0FDC3EE9CEF9D5008900070ECF0EDA383
:1012F100F0900070E0FEA3E0FF8E408F4175420048
:10130100754300900011E0FAA3E0FB8A008B017E97
:10131100007F0090038BE540C398F0E54199A3F06D
:10132100E5429EA3F0E5439FA3F0900050E4F5F061
:10133100C003C0021252C3AC82AD83AEF0FFD00233
:10134100D00390000FE0F8A3E0F9E8C39AFAE99B13
:10135100FB900368EAF0EBA3F0E4A3F0A3F08C8226
:101361008D838EF0EF124DACAC8274142CFC900086
:1013710060E0FDA3E0FEA3E0FF8D828E838FF0127B
:101381005571FBC3EC9B500E8D828E838FF0EC1256
:1013910052887582012275820022AFF0AE83E58208
:1013A100900072F0EEA3F0EFA3F09000A9E07003BB
:1013B100F582221246CFE5826063900079E0700BDE
:1013C10090007AE0600590007AE4F090007AE07095
:1013D100449000BCE0FE7F009000BBE07C0042072F
:1013E100EC4206C007C00612484BAA82AB83ACF0A0
:1013F100FDD006D0078F008E017E007F0090007522
:10140100E82AF0E93BA3F0EE3CA3F0EF3DA3F09016
:10141100007A7401F09000797401F08005900079F0
:10142100E4F090007AE07003F5822212484BAC821E
:10143100AD83AEF0FF900075E0F8A3E0F9A3E0FA08
:10144100A3E0FBC3EC98ED99EE9AEF9B402090004E
:101451007AE4F090007BE0601190007BE4F0900171
:101461004CF0A3F075828F122188758200229000C2
:1014710072E0FDA3E0FEA3E0FF8D828E838FF01268
:101481005571FD9000BDE0C39D503590007BE0702B
:101491001390007B7401F090014CF0E4A3F075828D
:1014A1008F122188900072E0FDA3E0FEA3E0FF907F
:1014B10000BDE08D828E838FF012528875820122E9
:1014C10075820022AFF0AE83E58290007CF0EEA33E
:1014D100F0EFA3F01246C5AF829000ACE0FEBE0370
:1014E100098F82C0071234BED007EF601590007CCF
:1014F100E0FCA3E0FDA3E0FE8C828D838EF0E4127C
:1015010052888F8222AFF0AE83E582900080F0EEA8
:10151100A3F0EFA3F090007FE070030215CF9000DD
:1015210080E0FDA3E0FEA3E0FF8D828E838FF012A9
:101531005571FD900083E0C39D40030215CF124811
:101541004BAC82AD83AEF0FF900084E0F544A3E0A4
:10155100F545A3E0F546A3E0F5478C028D03A844C9
:10156100A945EAC398FAEB99FB900027E0F8A3E0BC
:10157100F9C3EA98EB99403E900083E02401F0E53D
:10158100444545454645477010900084ECF0EDA375
:10159100F0EEA3F0EFA3F0801DEAC398F879007A8A
:1015A100007B00900084ECC398F0ED99A3F0EE9AD3
:1015B100A3F0EF9BA3F0900080E0FDA3E0FEA3E089
:1015C100FF900083E08D828E838FF002528890001D
:1015D10080E0FDA3E0FEA3E0FF8D828E838FF012F9
:1015E1005571900083F0900084E4F0A3F0A3F0A380
:1015F100F022AFF0AE83E582900089F0EEA3F0EF28
:10160100A3F0900088E070030216F9900089E0FDD4
:10161100A3E0FEA3E0FF8D828E838FF0125571FC53
:1016210090008CE0FBC3EC9B40030216F9C005C09F
:1016310006C007C007C006C00512484BA982AA838D
:10164100ABF0FCD005D006D00790008DE0F548A3A3
:10165100E0F549A3E0F54AA3E0F54B89008A07AD1F
:1016610048AE49E8C39DF54CEF9EF54DAE4CAF4DEC
:10167100C3EE940AEF9400D007D006D00540618DE7
:10168100828E838FF0125571FD90008CE0FFC39D17
:10169100FEBE0500400B8F05ED24FB90008CF08011
:1016A1000790008CEFC39EF0E5484549454A454BFC
:1016B100701090008DE9F0EAA3F0EBA3F0ECA3F039
:1016C100801EE54C24F6F87D007E007F0090008DA1
:1016D100E9C398F0EA9DA3F0EB9EA3F0EC9FA3F081
:1016E100900089E0FDA3E0FEA3E0FF90008CE08D77
:1016F100828E838FF0025288900089E0FDA3E0FE84
:10170100A3E0FF8D828E838FF012557190008CF0D3
:1017110090008DE4F0A3F0A3F0A3F022900029E063
:10172100F5F0A3E042F0A3E042F0A3E045F060361B
:1017310012484BAC82AD83AEF0FF900029E0F8A3D4
:10174100E0F9A3E0FAA3E0FBC3E89CE99DEA9EEB84
:101751009F500F900029E4F0A3F0A3F0A3F075824D
:1017610000227582012275820022AF83E5829000FA
:1017710091F0EFA3F012484BAC82AD83AEF0FF9035
:101781000091E0FAA3E0FB8A008B017A007B0090D4
:101791000029E82CF0E93DA3F0EA3EA3F0EB3FA3DA
:1017A100F022900005E0FFBF0A0040030218E0901C
:1017B1000006E075F03CA424C1FDE43400FEEF75A1
:1017C100F006A42DFDE43EFE90037DEDF0EEA3F0C6
:1017D100E4A3F09003807406F0E4A3F0900013F505
:1017E100F012517A900007E0FDA3E0FE7C007B003F
:1017F100900017E090038BF0E4A3F0A3F0A3F08D29
:10180100828E838CF0EB1252C3AB82AC83ADF0FEBF
:10181100900368740AF0E4A3F0A3F0A3F08B828C28
:10182100838DF0EE124DACAB82AC83ADF0FE900037
:1018310019EBF0ECA3F0EDA3F0EEA3F0900013E0B0
:1018410020E0030218D99000B2E0FE7D0090001460
:10185100E0900389F0E4A3F08E828D831252A3AD50
:1018610082AE839003617464F0E4A3F08D828E8371
:10187100124D1FAD8290001DEDF09000B3E090037A
:1018810089F0E4A3F090000A1252A3AD82AE8390D6
:10189100001EEDF0EEA3F0900016E090038BF0E453
:1018A100A3F0A3F0A3F09005DCF5F01252C3AB82D4
:1018B100AC83ADF0FE9003707464F0E4A3F0A3F088
:1018C100A3F08B828C838DF0EE124F39AB82AC8307
:1018D100900020EBF0ECA3F09000247401F022BF03
:1018E1000A4C9000AAE06046900013E4F0900014C6
:1018F100F0900017F0900016740FF0900015E4F0CE
:10190100758204121930AE82AF83900389EEF0EF35
:10191100A3F090000A1252A3AE82AF837D007C0037
:10192100900019EEF0EFA3F0EDA3F0ECA3F022E5A7
:1019310082900093F09000AEE0FE7F009000ADE059
:101941007C004207EC42068F828E8312542EAC82B9
:10195100AD83AEF0FFC004C005C006C007908F5C28
:1019610075F0A2743F124E68AC82AD83AEF0FFE514
:101971008124FCF581C004C005C006C00790CBDC02
:1019810075F0167441124E68AC82AD83AEF0FFE57E
:101991008124FCF581C004C005C006C00790500039
:1019A10075F0C374461254AEAC82AD83AEF0FFE560
:1019B1008124FCF581900093E0F582C007C006C048
:1019C10005C00412558DA882A983AAF0FBD004D0CA
:1019D10005D006D007C000C001C002C0038C828DB3
:1019E100838EF0EF124E68AC82AD83AEF0FFE581DD
:0E19F10024FCF5818C828D838EF0EF02543A37
:015717000091
:1019FF00123754AE82AF83900389EEF0EFA3F090CD
:101A0F00000A1252A3AE82AF838E10EFF5113395F9
:101A1F00E0F512F513900094E0FAA3E0FB8A00F9C9
:101A2F003395E0FEFF90038BE510C398F0E5119915
:101A3F00A3F0E5129EA3F0E5139FA3F0900064E4DA
:101A4F00F5F0C003C0021252C3AC82AD83AEF0FFFB
:101A5F00D002D003900096E0F8A3E0F9E8C39AFA19
:101A6F00E99BFB900368EAF0EBA3F0EB3395E0A35F
:101A7F00F0A3F08C828D838EF0EF124DACAC82AD63
:101A8F0083C3E49C74808DF063F08095F0E433FFA2
:101A9F0060068C038D0680047B007E00C3EB94648C
:101AAF00EE64809480500DEF60068C068D078006E3
:101ABF007E0080027E648E82229000987446F090A1
:101ACF000099E4F0A3F0A3F0A3F090009DF0900034
:101ADF00A6E0900389F0E4A3F09000641252A3AE45
:101AEF0082AF839000A5E0FC7D009000A4E07A0017
:101AFF004205EA4204EDC39EFAEC9FC40354F8CAB0
:101B0F00C403CA6ACA54F8CA6AFB9003617464F0CA
:101B1F00E4A3F08A828B83C007C006C005C00412FD
:101B2F004D1FAA82AB83D004D005D006D007EDC3DA
:101B3F009AFDEC9BFC900096EDF0ECA3F0EA2EFAE8
:101B4F00EB3FFB900094EAF0EBA3F02290009DE0B6
:101B5F00701D123754E5828583F045F07001221213
:101B6F0019FFE582900098F090009D7401F0221209
:101B7F003626AF82900099E0F5F0A3E042F0A3E0A3
:101B8F0042F0A3E045F07021EF701EC00712484BE2
:101B9F00AB82AC83ADF0FED007900099EBF0ECA3D5
:101BAF00F0EDA3F0EEA3F0800EEF600B900099E440
:101BBF00F0A3F0A3F0A3F0EF703B12484BAC82AD53
:101BCF0083AEF0FF900099E0F8A3E0F9A3E0FAA349
:101BDF00E0FBECC398FCED99FDEE9AFEEF9BFFC383
:101BEF0074D09C74079DE49EE49F50091219FFE581
:101BFF0082900098F022900098E0F5822290009851
:101C0F00E0F58222121C4CE5827003121C28121E72
:101C1F006AE5827003021C4322121D1E121CC0E5CE
:101C2F0082600A75820312215F758201227582001C
:101C3F0022021CC0121F3C021EDE021EDE75820530
:101C4F0012215F90013B7404F090013C74A1F07479
:101C5F0000A3F0E4A3F090013F7498F07582001296
:101C6F001F46AF82BF00028033BF03028016BF043E
:101C7F0002801DBF05028018758246C00712215FC2
:101C8F00D0078022758249C00712215FD0078016C6
:101C9F0075824AC00712215FD007800A758202C081
:101CAF000712215FD007EFB401009202E433F582EF
:101CBF002275820612215F9001427404F090014355
:101CCF0074A1F07400A3F0E4A3F09001467498F0AF
:101CDF0075820012203FAF82BF0002801DBF060237
:101CEF00800C758247C00712215FD007801675825E
:101CFF0048C00712215FD007800A758204C00712FF
:101D0F00215FD007EFB401009203E433F5822290F4
:101D1F0000A1E4F09000A27419F09000A3740AF0EF
:101D2F009000A47454F09000A57415F09000A623B1
:101D3F00F09000A87401F09000A9F09000AAF09024
:101D4F0000AB7403F09000ACE4F09000AD7418F0A9
:101D5F009000AE7401F09000AFF09000A77464F0A3
:101D6F009000B07405F09000B17414F09000B2744C
:101D7F003CF09000B37428F09000B474E8F0900039
:101D8F00B57403F09000B67410F09000B7740EF0B5
:101D9F009000B87401F09000B9E4F09000BA746448
:101DAF00F09000BB7458F09000BC7402F09000BD2E
:101DBF00740AF09000BEE4F09000BFF09000C07481
:101DCF0003F0900385E4F09003867478F0E4A3F0B9
:101DDF009000C1F5F01252217F00BF09004001228F
:101DEF008F06EE0475F006A4FE24C1FCE43400FD5A
:101DFF008C828D837403F0EE24C1FCE43400FD8CDF
:101E0F00828D83A3A3A37464F0EE24C1FCE4340099
:101E1F00FD8C828D83A3A3A3A37464F0EE24C1FC75
:101E2F00E43400FD8C828D83A3A37464F0EE24C18F
:101E3F00FCE43400FD0CBC00010DEF905631938C87
:101E4F00828D83F0EE24C1FEE43400FD8E828D83FB
:101E5F00A3A3A3A3A3E4F00F021DE9758207122128
:101E6F005F90013B7401F090013C7439F07401A351
:101E7F00F0E4A3F090013F7402F0758201121F4647
:101E8F00AF82BF00028033BF03028016BF040280FF
:101E9F001DBF05028018758246C00712215FD0074B
:101EAF008022758249C00712215FD0078016758284
:101EBF004AC00712215FD007800A758208C0071237
:101ECF00215FD007EFB401009204E433F58222754D
:101EDF00820912215F9001427401F090014374391D
:101EEF00F07401A3F0E4A3F09001467402F0758240
:101EFF000112203FAF82BF0002801DBF0602800C7F
:101F0F00758247C00712215FD0078016758248C0BF
:101F1F000712215FD007800A75820AC00712215F5E
:101F2F00D007EFB401009205E433F5822290013916
:101F3F00E4F090013AF022E582900140F0E0FF7E5C
:101F4F00008F828E831233C1E58270047582012265
:101F5F007F007D9E7E007C008F027B008A828B83B8
:101F6F00C007C006C005C004123421AA82AB83D0BB
:101F7F0004D005D006D007EB30E704758202228D1E
:101F8F00828E83EAF0A3AD82AE830F0CBC030040B8
:101F9F00C790009EE0FE90013BE0FDEEB50502808C
:101FAF00047582032290009FE0FE90013FE0FDEE5A
:101FBF00B50502800475820422900141E4F090017E
:101FCF003CE0FBA3E0FCA3E0FE7A00C3EA9D50488F
:101FDF008F00790088828983C007C006C005C004BE
:101FEF00C003C002123421A882A983D002D003D02B
:101FFF0004D005D006D007E930E70475820222909D
:10200F000141E028F08B828C838EF0E8125288A376
:10201F00AB82AC830F0A80B39000A0E0FF90014128
:10202F00E0FEEFB50602800475820522758200225C
:10203F00E582900147F0900142E090009EF0900100
:10204F0046E0FF90009FF09000A0E4F0900147E081
:10205F00FE7D008E828D83C0071233C1E582D007CB
:10206F00700475820122C007123405E582D0077013
:10207F000475820622900143E0FCA3E0FDA3E0FE7D
:10208F007B037A00C3EA9F505EC0078B0079008CF8
:10209F00828D838EF0125571FF900251F0888289E4
:1020AF0083C007C006C005C004C003C00212346954
:1020BF00E582D002D003D004D005D006D007D007D8
:1020CF00700712349F758207229000A0E0F98C826E
:1020DF008D838EF0125571F8A3AC82AD83E82990F1
:1020EF0000A0F00B0A809D7F007D9E7E007C008FFC
:1020FF00027B008D828E83E0900251F08A828B8367
:10210F00C007C006C005C004123469E582D004D0F0
:10211F0005D006D007700712349F758207220F0D66
:10212F00BD00010E0CBC030040C512349F75820028
:01213F00227D
:09563100070A0E131A2432466226
:10214000E582900149F0E0900148F022900148E0DA
:10215000F58222E58290014AF0E0900148F022E504
:102160008290014BF0900148E07001227582EE12DE
:102170004B7890014BE0FFF582C007124B78D007F7
:1021800074EE2FF582024B78E58290014EF09001BB
:1021900048E07001227582ED124B7890014EE0FF0D
:1021A000F582C007124B78D00774ED2FFF90014CD9
:1021B000E0FDA3E0FEFCF582C007C006C005C00438
:1021C000124B78D004D005D006D007EC2FFF8D82BB
:1021D000C007C005124B78D005D007ED2FF582025D
:1021E0004B7890014FE4F0900210F0A3F0A3F0A31D
:1021F000F0900214F0A3F0A3F0A3F09004B0F5F077
:10220000124A6C12484BAC82AD83AEF0FF74E82CDE
:10221000FC74033DFDE43EFEE43FFFC007C006C082
:1022200005C00412484BA882A983AAF0FBD004D0B1
:1022300005D006D007C3E89CE99DEA9EEB9F501BA2
:10224000C007C006C005C00412225C90000A1248F4
:102250006DD004D005D006D00780C02212484BAC08
:1022600082AD83AEF0FFC007C006C005C004124BAC
:102270002EE582D004D005D006D0077003022336A5
:1022800090014FE0FBBBC002802D900214E0F8A348
:10229000E0F9A3E0FAA3E0FB900214E0F5F0A3E07C
:1022A00042F0A3E042F0A3E045F0603CC3EC98EDBF
:1022B00099EE9AEF9B503190014FE4F0C007C006B1
:1022C000C005C004124B2EE582D004D005D006D044
:1022D000076093C007C006C005C004124B4AD00473
:1022E000D005D006D00780D490014FE0FB04F0EB7E
:1022F0002450FBE43401FAC007C006C005C004C086
:1023000003C002124B4AA982D002D003D004D005E8
:10231000D006D0078B828A83E9F0900210ECF0EDB2
:10232000A3F0EEA3F0EFA3F0900214E4F0A3F0A367
:10233000F0A3F002226690014FE0602C900210E0C2
:10234000F8A3E0F9A3E0FAA3E0FBECC398F8ED9959
:10235000F9EE9AFAEF9BFBC3746498E499E49AE46B
:102360009B500590014FE4F0C007C006C005C004B3
:1023700012249FAA82AB83D004D005D006D007BA1E
:10238000FF2BBBFF2890014FE4F0900210F0A3F068
:10239000A3F0A3F090021474322CF0E43DA3F0E417
:1023A0003EA3F0E43FA3F075824F02215F8A068BC3
:1023B00007C3E49E74808FF063F08095F0506290C4
:1023C000014FE0FFFD7E00C3EA9DEB64808EF06369
:1023D000F08095F0503CEA2450FDEB3401FE900370
:1023E0007DEDF0EEA3F0E4A3F0FEEFC39AFFEE9BC9
:1023F000FE900380EFF0EEA3F090015075F000C066
:1024000003C00212517AD002D00390014FE0C39A68
:10241000F02290014FE4F0900210F0A3F0A3F0A39B
:10242000F022AFF0AE83E582900219F0EEA3F0EF58
:10243000A3F090021CE4F0900219E0FDA3E0FEA3DB
:10244000E0FF900218E0FC7B00C3EB9C501BEB2DDF
:10245000F8E43EF98F02888289838AF0125571F878
:1024600090021CE028F00B80E090021CE0F5822234
:10247000E582900220F090021DE0FDA3E0FEA3E0C3
:10248000FF8D828E838FF0125571FC900220E0FB4D
:102490002C8D828E838FF01252888B82024B789023
:1024A000014FE0FFBF010050049000002290015056
:1024B000E0FFBF0102800FBF0202800DBF1102804A
:1024C0000BBF160E80090224D602250D02254402F8
:1024D00025A390FFFF2290014FE0FFBF02005004B0
:1024E00090000022900151E0FFBF0102800FBF0267
:1024F00002800DBF0302800BBF040E80090225DAA3
:102500000226AA02272D0227F090FFFF2290014FFA
:10251000E0FFBF0200500490000022900151E0FF54
:10252000BFF002800FBFF102800DBFF202800BBF2F
:10253000F30E80090227F4022884022990022A1748
:1025400090FFFF2290014FE0FFBF02005004900077
:102550000022900151E0FFBF08028028BF0A0280DC
:1025600026BF11028024BF20028022BF21028020CA
:10257000BF2202801EBF2402801CBF2502801ABF1A
:10258000311D8018022AE4022AFC022B39022B5C3E
:10259000022CDA022CFE022D9F022DF4022E249032
:1025A000FFFF2290014FE0FFBF02005004900000A7
:1025B00022900151E0FFBF0B02800FBF0C02800D83
:1025C000BF1A02800BBF1F0E8009022E51022F2E50
:1025D000022F83022FB890FFFF2290014FE0FFBF30
:1025E00003005004900000229002187402F0900141
:1025F0005075F000122422AF82900152E0FEEFB538
:102600000602800302269C900221E4F090021D74D1
:1026100021F07402A3F0E4A3F075820112247090FB
:10262000021D7421F07402A3F0E4A3F0758201127C
:10263000247090021D7421F07402A3F0E4A3F075DD
:10264000820112247090021D7421F07402A3F0E440
:10265000A3F075820512247090021D7421F074029B
:10266000A3F0E4A3F075820012247090021D74217F
:10267000F07402A3F0E4A3F07582041224709002B7
:102680001D7421F07402A3F0E4A3F07582021224F9
:1026900070900221E0F582124B78800A75824E120A
:1026A000215F90FFFF229000032290014FE0FFBFC7
:1026B00003005004900000229002187402F0900170
:1026C0005075F000122422AF82900152E0FEEFB567
:1026D000064D900222E4F090021D7422F07402A3D1
:1026E000F0E4A3F075820112247090021D7422F0B0
:1026F0007402A3F0E4A3F075820212247012214C3C
:10270000AF8290021D7422F07402A3F0E4A3F08F54
:1027100082122470900222E0F582124B78800A75B2
:10272000824E12215F90FFFF229000032290014F02
:10273000E0FFBF03005004900000229002187402D2
:10274000F090015075F000122422AF82900152E007
:10275000FEEFB5060280030227E2900223E4F09028
:10276000021D7423F07402A3F0E4A3F07582011239
:10277000247090021D7423F07402A3F0E4A3F0759A
:10278000820312247090021D7423F07402A3F0E4FB
:10279000A3F075820412247090021D7423F0740259
:1027A000A3F0E4A3F07582981224707F00BF980014
:1027B0005025EF24A1F582E43400F583E0FE900279
:1027C0001D7423F07402A3F0E4A3F08E82C00712FC
:1027D0002470D0070F80D6900223E0F582124B7848
:1027E000800A75824E12215F90FFFF229000032223
:1027F0009000002290014FE0FFBF040050049000C1
:1028000000229002187403F090015075F000122419
:1028100022AF82900153E0FEEFB5065A900152E0DC
:1028200024FFE433F582122153900224E4F0900255
:102830001D7424F07402A3F0E4A3F0758202122444
:102840007090021D7424F07402A3F0E4A3F075826A
:10285000F0122470900152E0FF90021D7424F07475
:1028600002A3F0E4A3F08F82122470900224E0F51A
:1028700082124B78800A75824E12215F90FFFF22F0
:102880009000042290014FE0FFBF0400500490002C
:102890000022900152E0FE900153E0FDFB7C0074A9
:1028A000052BF9E43CFA8F007F00C3E899EF6480C0
:1028B0008AF063F08095F050049000002290021896
:1028C000749CF090015075F000C006C005C004C0B3
:1028D00003122422AF82D003D004D005D006900189
:1028E000ECE0FAEFB50202800302297B900225E4B6
:1028F000F0BE0432BD982F90037D7454F07401A390
:10290000F0E4A3F09003807498F0E4A3F09000A1A9
:10291000F5F0C004C00312517A121C40E582D003C6
:10292000D004900225F0900226E4F090021D742657
:10293000F07402A3F0E4A3F0758202C004C0031295
:10294000247090021D7426F07402A3F0E4A3F075C5
:1029500082F1122470900225E0FF90021D7426F08F
:102960007402A3F0E4A3F08F82122470900226E098
:10297000F582124B78D003D004800A75824E122162
:102980005F90FFFF2274052BFBE43C8B82F58322D2
:1029900090014FE0FFBF030050049000002290021E
:1029A000187402F090015075F000122422AF82904A
:1029B0000152E0FEEFB50651121C28AF82900227AB
:1029C000E4F090021D7427F07402A3F0E4A3F07504
:1029D0008202C00712247090021D7427F07402A3B3
:1029E000F0E4A3F07582F2122470D00790021D74F7
:1029F00027F07402A3F0E4A3F08F821224709002F7
:102A000027E0F582124B78800A75824E12215F9082
:102A1000FFFF229000032290014FE0FFBF0500500E
:102A200004900000229002187404F090015075F098
:102A300000122422AF82900154E0FEEFB50602801E
:102A400003022AD6900152E0FE7F00900153E07C01
:102A5000004207EC42068F828E83123685AE82AF2B
:102A6000838E05900139EDF08F0690013AEEF01259
:102A70001C49900228E4F090021D7428F07402A30F
:102A8000F0E4A3F075820212247090021D7428F005
:102A90007402A3F0E4A3F07582F312247090015243
:102AA000E0FF90021D7428F07402A3F0E4A3F08FFD
:102AB00082122470900153E0FF90021D7428F0747C
:102AC00002A3F0E4A3F08F82122470900228E0F5B4
:102AD00082124B78800A75824E12215F90FFFF228E
:102AE0009000052290014FE0FFBF020050049000CB
:102AF00000221207EA124B789000022290014FE068
:102B0000FFBF0200500490000022123748AE82AF8F
:102B100083EE2EFEEF33FF900361740AF0E4A3F01E
:102B20008E828F83124D1FAE82C006124B78D00664
:102B30008E82124B789000022290014FE0FFBF027C
:102B400000500490000022121C0CAF82C007124BF0
:102B500078D0078F82124B789000022290014FE0CC
:102B6000FFBF02005004900000229000BEE0FFBFB3
:102B70000102800ABF02028014BF0311801E1208E6
:102B800057AF82900229EFF0E4A3F0801C123626A2
:102B9000AF82900229EFF0E4A3F0800D121C05AF84
:102BA00082900229EFF0E4A3F09000A1E06036905B
:102BB0000229E0FEA3E0FF900389EEF0EFA3F0907E
:102BC00000A11252A3AE82AF839003617464F0E45B
:102BD000A3F08E828F83124D1FAE82AF83900229A5
:102BE000EEF0EFA3F09000AEE0FE7F009000ADE0CD
:102BF0007C004207EC42068F828E8312542EAC82F8
:102C0000AD83AEF0FFC004C005C006C0079082E6E9
:102C100075F03F7441124E68AC82AD83AEF0FFE5B3
:102C20008124FCF581C004C005C006C00790500097
:102C300075F0C374461254AEAC82AD83AEF0FFE5BE
:102C40008124FCF581900229E0FAA3E0FB8A828BC3
:102C500083C007C006C005C00412542EA882A983F1
:102C6000AAF0FBD004D005D006D007C000C001C038
:102C700002C0038C828D838EF0EF124E68AC82AD61
:102C800083AEF0FFE58124FCF5818C828D838EF08C
:102C9000EF12543AAE82AF8390022BE4F08F05908E
:102CA000021D742BF07402A3F0E4A3F08D82C00720
:102CB000C006122470D006D00790021D742BF07449
:102CC00002A3F0E4A3F08E8212247090022BE02481
:102CD00020F582124B789000022290014FE0FFBF56
:102CE0000300500490000022758200124B78758218
:102CF00000124B78758200124B78900003229001ED
:102D00004FE0FFBF0300500490000022120857AEAE
:102D1000827F0090022CEEF0EFA3F09000A1E06023
:102D200037900389EEF0EFA3F09001221252A3E551
:102D3000828583F024BAFE741335F0FF900361742A
:102D400064F0E4A3F08E828F83124D1FAE82AF83B6
:102D500090022CEEF0EFA3F090022EE4F090022C03
:102D6000E0FEA3E0FFFD90021D742EF07402A3F0BC
:102D7000E4A3F08D82C007C006122470D006D007ED
:102D800090021D742EF07402A3F0E4A3F08E821260
:102D9000247090022EE0F582124B7890000322906E
:102DA000014FE0FFBF030050049000002290022F6B
:102DB000E4F0123754AE82AF838F0590021D742F5A
:102DC000F07402A3F0E4A3F08D82C007C0061224C1
:102DD00070D006D00790021D742FF07402A3F0E4A7
:102DE000A3F08E8212247090022FE0F582124B78AD
:102DF0009000032290014FE0FFBF030050049000B9
:102E00000022758200124B78758200124B78758211
:102E100000124B78758200124B78758200124B7845
:102E20009000032290014FE0FFBF02005004900089
:102E3000002212445DE58260047F3080027F318F82
:102E400082C007124B78D0078F82124B7890000215
:102E50002290014FE0FFBF04005004900000229038
:102E600002187403F090015075F000122422AF8212
:102E7000900153E0FEEFB506028003022F2090017F
:102E800052E0FF24E85003022F2AEF240A83F58240
:102E9000EF241C83F583E473C8D0F0102A2A182A83
:102EA0002A2A2AD8E0E82A2A2A2A2A2A2AF80008DE
:102EB0002E2E2E2F2F2F2F2F2F2F2F2E2E2E2F2F28
:102EC0002F2F2F2F2F2E2F2F75820012062F805A73
:102ED00075820112062F805275820212062F804AD7
:102EE00075820312062F804275820412062F803AE3
:102EF00075820512062F803275820612062F802AEF
:102F000075820712062F802275820812062F801AFA
:102F100075820912062F801275820A12062F800A06
:102F200075824E12215F90FFFF22900004229001D3
:102F30004FE0FFBF0400500490000022900218747C
:102F400003F090015075F000122422AF82900153DB
:102F5000E0FEEFB5061F900152E0FFBF02028005C0
:102F6000BF041C8008758200120718801275820148
:102F7000120718800A75824E12215F90FFFF22907F
:102F800000042290014FE0FFBF03005004900000B6
:102F900022900152E0FFBFF0028005BFF1128008CD
:102FA00075820012066D800C75820112066D800418
:102FB00090FFFF229000032290014FE0FFBF050029
:0A2FC000500490000022900005224A
:0501900090023DE4F0C7
:102FCA00AF83E58290023BF0EFA3F090023BE0FE74
:102FDA00A3E0FF7D008D048F058E077E00900370AD
:102FEA007488F07413A3F0E4A3F0A3F08E828F83A5
:102FFA008DF0EC124F39AC82900230ECF09002392D
:10300A00E0FEA3E0FF7D008D048F058E077E009011
:10301A0003707488F07413A3F0E4A3F0A3F08E8213
:10302A008F838DF0EC124F39AC82900231ECF09024
:10303A000232E4F0900233F090023404F090023548
:10304A00E4F0A3F0A3F0A3F022900232E060109023
:10305A000233E06006900234E07004C2068002D2B5
:10306A0006A206E433F58222123327AE827F00904D
:10307A00023EEEF0EFA3F0C3EE9419EF6480948061
:10308A00E433FD7012C374E69E74808FF063F0809F
:10309A0095F04003023169900235E0F5F0A3E04271
:1030AA00F0A3E042F0A3E045F0700302314790023A
:1030BA0034E0700302317FC005C007C006C00512A4
:1030CA00484B85821485831585F016F517D005D0EF
:1030DA0006D007900235E0F8A3E0FBA3E0FCA3E0EA
:1030EA00FDE514C398F8E5159BFBE5169CFCE5176E
:1030FA009DFDC3746498E49BE49CE49DD0055075DF
:10310A00900232E06013ED601075824BC007C00672
:10311A0012215FD006D007801DC374E69E74808F8B
:10312A00F063F08095F0500E75824CC007C006120D
:10313A00215FD006D007900234E4F08038C007C07F
:10314A000612484BAA82AB83ACF0FDD006D007909A
:10315A000235EAF0EBA3F0ECA3F0EDA3F0801690B1
:10316A0002327401F0900235E4F0A3F0A3F0A3F068
:10317A0090023404F0900230E0FDFB7C00C3EE9B29
:10318A00EF64808CF063F08095F0503990023374CC
:10319A0001F090023DE0600D0EBE00010F90023E6C
:1031AA00EEF0EFA3F090023EE0FEA3E0FFC3EE9B39
:1031BA00EF64808CF063F08095F0500990023DE452
:1031CA00F07582002290023EE0FEA3E0FF900231F9
:1031DA00E0FCFA7B00C3EA9EEB64808FF063F08028
:1031EA0095F0500890023EEAF0EBA3F07F009002BF
:1031FA003EE0FBA3E0FE900389EBC39DF0EE9FA3A4
:10320A00F0900063C007C005C0041252A3AB82AE9F
:10321A0083D004D005D0077A0090038FECC39DF0C9
:10322A00EA9FA3F08B828E83125388AE820E90029D
:10323A003DEEF08E8222E582900240F0E090563A0E
:04324A0093F5822254
:10563A000001010102020203030304040405050632
:10564A0006070808090A0A0B0C0C0D0E0F10101198
:10565A001213141516171718191A1B1C1D1E1F20B2
:10566A0021222324252728292A2B2C2D2E3031329A
:10567A003334363738393B3C3D3E40414244454657
:10568A0048494A4C4D4E505153545557585A5B5DF0
:05569A005E6061636425
:10324E0053927F4391805392DF439120C295439DC9
:10325E00205392FB439104C292439D0475BD0075A9
:10326E00BE005397DF75BC80900242E4F09002439B
:10327E00F0900244F0A3F0900246F0A3F0900241C9
:10328E007405F075BC8DE5BCC4540160F902329E24
:10329E00E5BCC454016049900242E4F075BC8090D4
:1032AE000241E0FFBF02028011BF0561900243E5BB
:1032BE00BDF09002417402F08053AEBD7F00EE2E41
:1032CE00FEEF33FFEE2EFEEF33FFACBE7D0090021D
:1032DE0044EC4EF0ED4FA3F09002417405F0802DBA
:1032EE00900242E02401F0E07022F5BD75BC8090A2
:1032FE000242E4F0900243F0900246F0A3F09002F6
:10330E0044F0A3F09002417405F080012275BD00D7
:10331E00900241E04488F5BC22900243E0F58222FF
:10332E0090000022900244E0FEA3E08E82F58322FC
:10333E00900246E0FEA3E08E82F5832290000022EA
:10334E00E58290024AF075C782E0F5C5900396E0DB
:10335E00FEA3E0FF900248E0FCA3E0FDEC2EFEEDA4
:10336E003FF5C38EC42275C65A75C6A500E5C7C4FF
:10337E005401B401009207E433F5822275C700753B
:10338E00C50075C60075C3FF75C4FF22900394E493
:10339E00F074ECA3F09000001233C19000001234D0
:1033AE0021AE82AF83BEFF0ABFFF07900394E4F005
:1033BE00A3F022AF83E58290024BF0EFA3F09002D0
:1033CE004BE0FEA3E0FF20E72AC3EE9404EF6480F7
:1033DE009480501FEE2ECF7E00900394E0FCA3E06D
:1033EE00FDEE2CFCEF3DFD900396ECF0EDA3F07599
:1033FE0082012275820022900248E4F0A3F07582C9
:10340E000312334E123374AF82C00712338AD007C1
:10341E008F8222AF83E58290024DF0EFA3F09002EF
:10342E004F74FFF0A3F090024DE0FEA3E0FF900278
:10343E0048EEF0EFA3F075820112334E123374E5AD
:10344E0082600990024FE5C2F0E4A3F012338A9035
:10345E00024FE0FEA3E08E82F58322AF83E58290D9
:10346E000252F0EFA3F0900252E0FEA3E0FF9002B2
:10347E0048EEF0EFA3F075820212334E900251E047
:10348E00F5C2123374AF82C00712338AD0078F820F
:05349E002275820122ED
:04571800000000008D
:1034A3004394085393F74394045393FB1234BB752B
:1034B30082000234BEC28322D28322E58290025468
:1034C300F0E06003C28222D282224396015395FE2A
:1034D30043CA1053C9EF43CA2053C9DFC2A0D2CC99
:1034E300D2CD22AF83E58290027CF0EFA3F01234B9
:1034F300CD900255E4F090025EF090025FF09002EE
:1035030060F0900261F0900266F0A3F090027AE01E
:10351300FEA3E0FF74E62EFE74053FFF900262EE09
:10352300F0EFA3F0900279E0FF900389F0E4A3F0B9
:1035330090000AC0071252A3AD82AE83900264EDDD
:10354300F0EEA3F0900268E4F0A3F090026AF0A317
:10355300F090026CF0A3F090026E04F090026FE41E
:10356300F0900270F0A3F0A3F0A3F0900274F0A324
:10357300F0A3F0A3F09002787440F09012C0E4F549
:10358300F0124AC6D007C00712484BAB82AC83ADDA
:10359300F0FED007C3EB9464EC9400ED9400EE943A
:1035A3000040E3C007123B0EE5828583F0D0074558
:1035B300F0604090027CE0FDA3E0FE900299EFF002
:1035C3008D828E83123B5DE5828583F045F0602317
:1035D3009002557401F075820112215F7582001209
:1035E300362D7582001236599002607401F09002F4
:1035F3005EF02275824002215F900255E070012245
:1036030002401BD2A0221246C5E5827002C2A0224C
:10361300900266E0FEA3E08E82F5832290025FE0D3
:10362300F58222900261E0F58222E58290027EF02B
:10363300E0249B500690027E7464F090025FE0FFEA
:1036430090027EE0FEEFB506012290025FEEF0905D
:10365300025E7401F022E58290027FF0E0249B5029
:103663000690027F7464F0900261E0FF90027FE0B5
:10367300FEEFB5060122900261EEF0900260740144
:10368300F022AF83E582900280F0EFA3F0900280F6
:10369300E0FEA3E0FF900280E0F5F0A3E045F060D8
:1036A3006590026AE0FCA3E0FD90038BECF0EDA3D0
:1036B300F0E4A3F0A3F0902710F5F0C007C00612C2
:1036C30052C3AA82AB83ACF0FDD006D0079003703F
:1036D300EEF0EFA3F0E4A3F0A3F08A828B838CF0E7
:1036E300ED124F39AC82AD838C068D07EE241AFEA2
:1036F300EF34FAFF900282EEF0EFA3F0900262EC57
:10370300F0EDA3F0801190026274E6F07405A3F06B
:10371300900282E4F0A3F0900262E0FEA3E0FF9047
:10372300014CEEF0EFA3F075829212218890028291
:10373300E0FEA3E08E82F58322900264E0FEA3E024
:103743008E82F5832290026CE0FEA3E08E82F583E5
:1037530022900268E0FEA3E08E82F58322AFF0AEF2
:1037630083E582900285F0EEA3F0EFA3F090028848
:10377300E4F0900285E0FDA3E0FEA3E0FF90028465
:10378300E0FC7A007B008C007900C3EA98EB64804C
:1037930089F063F08095F05023C004EA2DF8EB3EE6
:1037A300F98F04888289838CF0125571F89002880E
:1037B300E028F00ABA00010BD00480CA900288E026
:1037C300F58222E58290028BF0124B3CE582600584
:1037D300124B6180F490028BE0FF900289E0FDA31D
:1037E300E0FE90028CEDF0EEA3F08F821237F5022B
:1037F3004C1FE58290028EF090025674AAF090025C
:103803008F7402F090028EE0FF900257F0BF6018B1
:1038130090028CE0FDA3E0900258F090028F7404B4
:10382300F0900259EDF08021BF4002801CBF41029D
:103833008017BF4202801290028F7403F090028CB3
:10384300E0FEA3E0900258EEF090028FE0FFFE1E30
:10385300900284EEF090025775F000C007123760B3
:10386300AE82D00790028FEF04F0EF2456F582E486
:103873003402F583EEF090028FE0FF7E00C3EE9FEB
:10388300501BEE2456F582E43402F583E0F582C042
:1038930007C006124BC9D006D0070E80E022E5828E
:1038A300900293F012484BAC82AD83AEF0FF746488
:1038B3002CF54EE43DF54FE43EF550E43FF55190D1
:1038C3000293E0FBBB60028008BB40028003BB4263
:1038D300047B0580027B047A00C3EA9B5056C00335
:1038E300C00212484BA882A983ABF0FFD002C3E801
:1038F300954EE9954FEB9550EF9551D0035035C058
:1039030003C002124B3CE582D002D00360CBEA2411
:1039130056FEE43402FF0AC007C006C003C0021209
:103923004B61AD82D002D003D006D0078E828F8345
:10393300EDF080A5EAB5030280030239E090025757
:10394300E0FF900293E0FEEFB5060280030239E048
:10395300EA24FE900284F090025775F000C006C07E
:1039630002123760AF82D002D0061AEA3395E0FD27
:10397300EA2456F582ED3402F583E0FDEFB50559EF
:10398300900290E0FCA3E0FDA3E0FFEC4D6046BE97
:1039930060028008BE40028003BE4223900258E0CA
:1039A300FB7E00900259E07A004206EA42038C82D1
:1039B3008D838FF0EE125288A3EB125288801690FB
:1039C3000258E0FE7B008C828D838FF0EE125288CA
:1039D300A3EB125288900001229000002290000075
:1039E30022E582900297F0E0FFBF60028008BF40AB
:1039F300028003BF42047F0580027F047E00C0076C
:103A0300C006124B3CE582D006D007602BBE0800EF
:103A13005026EE2456FCE43402FD0EC007C006C057
:103A230005C004124B61AB82D004D005D006D00789
:103A33008C828D83EBF080C6900298EEF0C0071263
:103A43004B3CE582D0076009C007124B61D0078069
:103A5300EC900298E0FEC39F500490000022EEB564
:103A630007028003023B0A900257E0FF900297E0AF
:103A7300FDEFB505028003023B0AEE24FE900284AB
:103A8300F090025775F000C006C005123760AF8290
:103A9300D005D0061EEE3395E0FCEE2456F582ECFD
:103AA3003402F583E0FEEFB50659900294E0FCA3DF
:103AB300E0FEA3E0FFEC4E6046BD60028008BD401F
:103AC300028003BD4223900258E0FB7D009002591F
:103AD300E07A004205EA42038C828E838FF0ED1276
:103AE3005288A3EB1252888016900258E0FD7B00A7
:103AF3008C828E838FF0ED125288A3EB1252889042
:103B030000012290000022900000227F00BF0A00E3
:103B13005044900289E4F0A3F0758267C00712371E
:103B2300C6D007900290E4F0A3F0A3F0758267C0BB
:103B3300071238A1E5828583F0D00745F0600A902B
:103B4300000412486D900001229003E8C007124858
:103B53006DD0070F80B790000022AF83E5829002FB
:103B63009AF0EFA3F090029CE4F0A3F09002897422
:103B73005FF0E4A3F07582681237C6900290E4F018
:103B8300A3F0A3F07582681238A1E5828583F0451E
:103B9300F070049000002290000412486D90028996
:103BA3007411F0E4A3F07582691237C6900290E4B1
:103BB300F0A3F0A3F07582691238A1E5828583F042
:103BC30045F070049000002290000412486D9002AA
:103BD300897478F0E4A3F075826A1237C690029074
:103BE300E4F0A3F0A3F075826A1238A1E58285831D
:103BF300F045F070049000002290000412486D908C
:103C030002897464F0E4A3F075826B1237C69002E4
:103C130090E4F0A3F0A3F075826B1238A1E58285DE
:103C230083F045F070049000002290000412486D68
:103C33009002897450F0E4A3F075826C1237C69039
:103C43000290E4F0A3F0A3F075826C1238A1E58230
:103C53008583F045F0700490000022900004124820
:103C63006D9002897446F0E4A3F075826D1237C635
:103C7300900290E4F0A3F0A3F075826D1238A1E5F1
:103C8300828583F045F070049000002290000412B6
:103C9300486D900289740CF0E4A3F075826E1237BC
:103CA300C6900290E4F0A3F0A3F075826E1238A1DF
:103CB300E5828583F045F0700490000022900004B3
:103CC30012486D900299E0FF7E007D007C00900217
:103CD30062E0FAA3E0FB90038BEAF0EBA3F0E4A32A
:103CE300F0A3F08F828E838DF0EC1252C3AC82ADC1
:103CF30083AEF0FF9003707464F0E4A3F0A3F0A329
:103D0300F08C828D838EF0EF124F39AC82AD8390AD
:103D13000289ECF0EDA3F07582601237C690029031
:103D2300E4F0A3F0A3F07582601238A1E5828583E5
:103D3300F045F070049000002290000412486D904A
:103D4300029AE0FEA3E0FF90038BEEF0EFA3F0E412
:103D5300A3F0A3F0900038F5F01252C3AC82AD8308
:103D6300AEF0FF9003707410F07427A3F0E4A3F097
:103D7300A3F08C828D838EF0EF124F39AC82AD832A
:103D830090029CECF0EDA3F0C374FF9CE49D5009FA
:103D930090029C74FFF0E4A3F090029CE0FEA3E089
:103DA300FF90014CEEF0EFA3F075828A1221889008
:103DB300029CE0FEA3E0FF900289EEF0EFA3F07512
:103DC30082611237C6900290749CF07402A3F0E4EF
:103DD300A3F07582611238A1E5828583F045F07006
:103DE300049000002290029CE0FEA3E0FF90014CAF
:103DF300EEF0EFA3F075828B122188900004124835
:103E03006D9000012212484BAC82AD83AEF0FF905F
:103E13000270E0F8A3E0F9A3E0FAA3E0FBECC39897
:103E2300F8ED99F9EE9AFAEF9BFBC3E89420E99435
:103E330000EA9400EB9400500122900260E060419C
:103E4300900261E090028CF0E4A3F0758264C007F5
:103E5300C006C005C0041237F5D004D005D006D083
:103E63000790026F7464F0900270ECF0EDA3F0EE33
:103E7300A3F0EFA3F090026E7402F0900260E4F0FE
:103E83002290025EE0606590025FE0900389F0E4B7
:103E9300A3F09000FAC007C006C005C0041252A3E5
:103EA300AA82AB839003617464F0E4A3F08A828BEB
:103EB30083124D1FAA8290028CEAF0E4A3F075826C
:103EC300631237F5D004D005D006D00790026F7483
:103ED30063F0900270ECF0EDA3F0EEA3F0EFA3F02B
:103EE30090026E7402F090025EE4F022900274E09D
:103EF300F8A3E0F9A3E0FAA3E0FBECC398F8ED998B
:103F0300F9EE9AFAEF9BFBC374C898E499E49AE438
:103F13009B504F900278E0FB90028CE4F0A3F08B6F
:103F230082C007C006C005C0041237F5D004D0050F
:103F3300D006D007900278E0FB90026FF0900270F9
:103F4300ECF0EDA3F0EEA3F0EFA3F090026E740299
:103F5300F0BB400E900274ECF0EDA3F0EEA3F0EF93
:103F6300A3F02290029EE4F090026FE0FFBF4002B4
:103F7300801ABF4102800DBF42028010BF630280DE
:103F830003BF640E90029E7404F0800690029E7438
:103F930005F0124B3CAF8290029EE0FEC3EF9E50B1
:103FA3003112484BAC82AD83AEF0FF900270E0F863
:103FB300A3E0F9A3E0FAA3E0FBECC398FCED99FDC1
:103FC300EE9AFEEF9BFFC374209CE49DE49EE49F66
:103FD300504590026FE0FFBF4002802EBF41028038
:103FE3001BBF4202801DBF6302800ABF642390028D
:103FF3006E7403F02290026E7404F02290026E74C9
:1040030006F02290026E7407F02290026E7405F09F
:104013002290026E7401F02290026EE0FF24F850A9
:104023000122EF240A83F582EF240C83F583E473E2
:104033003E4346498AEF50B74240404040404141E9
:10404300023E08023F66900294749FF07402A3F04C
:10405300E4A3F07582641239E4E5828583F045F0C8
:10406300601890029FE0FEA3E0FF90014CEEF0EF9A
:10407300A3F0758280122188800675824212215F27
:1040830090026E7401F022900294749FF07402A364
:10409300F0E4A3F07582631239E4E5828583F04589
:1040A300F0603C90029FE0FEA3E0FF900389EEF0F6
:1040B300EFA3F09000641252A3AE82AF839003612A
:1040C30074FAF0E4A3F08E828F83124D1FAE8290B8
:1040D300014CEEF0E4A3F07582811221888006750D
:1040E300824112215F90026E7401F0229002947457
:1040F3009FF07402A3F0E4A3F07582401239E4E563
:10410300828583F045F0603290029FE0FEA3E0FFDA
:10411300900266E0FCA3E0FDEEB50406EFB50502F0
:10412300801E900266EEF0EFA3F090014CEEF0EFEC
:10413300A3F0758282122188800675824312215F63
:104143009002787441F090026E7401F02290029410
:10415300749FF07402A3F0E4A3F07582411239E472
:10416300E5828583F045F0603890029FE0FEA3E08E
:10417300FF900389EEF0EFA3F09000641252A3AE18
:1041830082AF839003617438F0E4A3F08E828F834F
:10419300124D1FAE82AF8390026CEEF0EFA3F0805E
:1041A3000675824412215F9002787442F090026E89
:1041B3007401F022900294749FF07402A3F0E4A3BC
:1041C300F07582421239E4E5828583F045F0605947
:1041D30090029FE0FEA3E0FF90026AEEF0EFA3F0EF
:1041E30090038BEEF0EFA3F0E4A3F0A3F09003E8C9
:1041F300F5F01252C3AC82AD83AEF0FF900262E0E1
:10420300FAA3E0FB900370EAF0EBA3F0E4A3F0A3BE
:10421300F08C828D838EF0EF124F39AC82AD839098
:104223000268ECF0EDA3F0800675824512215F90E1
:0C42330002787440F090026E7401F022DA
:0B0195009002BDE4F0A3F0A3F0A3F083
:10423F00AF82AE83ADF0FC9002B6EFF0EEA3F0EDDF
:10424F00A3F0ECA3F09002B6E0FCA3E0FDA3E0FE28
:10425F00A3E0FFE4C0E07440C0E0741CC0E074460B
:10426F00C0E08C828D838EF0EF1254AEAC82AD83A2
:10427F00AEF0FFE58124FCF5818C828D838EF0EF0B
:10428F0012502DAC82AD83AEF0FF9002B2E0F8A3D6
:10429F00E0F9A3E0FAA3E0FBC004C005C006C00725
:1042AF00888289838AF0EB124E68AC82AD83AEF0C0
:1042BF00FFE58124FCF581C004C005C006C007904E
:1042CF00CF0F75F05B743B12532FAC82AD83AEF002
:1042DF00FFE58124FCF581C004C005C006C007902E
:1042EF00000075F080743F1254AEAC82AD83AEF017
:1042FF00FFE58124FCF5817433C0E07493C0E07452
:10430F0088C0E07443C0E08C828D838EF0EF124D35
:10431F0014AC82AD83AEF0FFE58124FCF5818C8275
:10432F008D838EF0EF229002A6E4F0A3F09002A10D
:10433F00F0A3F09002A3F09002A4F0A3F09002AAD1
:10434F0074DCF07405A3F09002AEE4F0A3F09002D9
:10435F00ACF0A3F09002B0F09002B104F05396F7D6
:10436F004395085396EF4395105396BF439540538B
:10437F00B2F753B1F753B2BF53B1BF9002A8A2A384
:10438F00E433F09002A9A2A4E433F002495A22AF19
:10439F0083E5829002BAF0EFA3F09002BAE0FEA399
:1043AF00E0FF900389EEF0EFA3F090000A1252A302
:1043BF00AE82AF839002AAEEF0EFA3F022C2A990D3
:1043CF0002A4E0FEA3E0FFD2A9EE4F6016900370A7
:1043DF00EEF0EFA3F0E4A3F0A3F090D09075F0030C
:1043EF00024F3990000022C2A99002A1E0FEA3E083
:1043FF00FFD2A98E828F8322C2A99002A4E0FEA3CE
:10440F00E0FF9002A3E0FDD2A9EE4F6003ED600440
:10441F00C2088002D208A208E433F58222C2A99012
:10442F0002A4E0FEA3E0FF9002A3E0FDD2A9EE4FAD
:10443F006003ED7004C2098002D209A209E433F5CA
:10444F008222E5829002BCF0E09002B1F022C2A974
:10445F009002ACE0FEA3E0FFD2A9EE4F24FFE433BD
:10446F00F58222C2A99002ACE0FEA3E0FFD2A9EE32
:10447F004F6036900370EEF0EFA3F0E4A3F0A3F0DB
:10448F00908D8075F05B124F39AC82AD83AEF0FF2B
:10449F009002B1E0900370F0E4A3F0A3F0A3F08CCE
:1044AF00828D838EF0EF024F399000002290000032
:1044BF0022758201229000ABE020E0030246BD90FE
:1044CF0002BDE0F5F0A3E042F0A3E042F0A3E04527
:1044DF00F07034123332AE82AF8390038BEEF0EF75
:1044EF00A3F0E4A3F0A3F0900064F5F01252C3AC74
:1044FF0082AD83AEF0FF9002BDECF0EDA3F0EEA322
:10450F00F0EFA3F0024594123332AE82AF839003E3
:10451F008BEEF0EFA3F0E4A3F0A3F0900064F5F0BE
:10452F001252C3AC82AD83AEF0FF9002BDE0F8A390
:10453F00E0F9A3E0FAA3E0FBECC398FCED99FDEEE4
:10454F009AFEEF9BFF9003687404F0E4A3F0A3F0CE
:10455F00A3F08C828D838EF0EFC003C002C001C028
:10456F0000124DACAC82AD83AEF0FFD000D001D0C5
:10457F0002D0039002BDEC28F0ED39A3F0EE3AA380
:10458F00F0EF3BA3F09002BDE0FCA3E0FDA3E0FE43
:10459F00A3E0FF9002BDE0F5F0A3E042F0A3E042FC
:1045AF00F0A3E045F070030246BD8C828D838EF040
:1045BF00EF125249AC82AD83AEF0FFC004C005C00C
:1045CF0006C00790CE0075F0C77447124D14AC8229
:1045DF00AD83AEF0FFE58124FCF581C004C005C0BA
:1045EF0006C00790CE0075F0C774471254AEAC8268
:1045FF00AD83AEF0FFE58124FCF581E4C0E0C0E0BF
:10460F007480C0E0743FC0E08C828D838EF0EF1217
:10461F004D14AC82AD83AEF0FFE58124FCF581C073
:10462F0004C005C006C00790600075F09F74451266
:10463F004E68AC82AD83AEF0FFE58124FCF581902E
:10464F0002B274B4F074A2A3F07491A3F07439A3FE
:10465F00F08C828D838EF0EF12423FAC82AD83AE31
:10466F00F0FFC004C005C006C00790000075F0C879
:10467F007442124E68AC82AD83AEF0FFE58124FC2C
:10468F00F581E4C0E0C0E0C0E0743FC0E08C828DF3
:10469F00838EF0EF12532FAC82AD83AEF0FFE58126
:1046AF0024FCF5818C828D838EF0EF0253FA9000FB
:1046BF00002290000022A2B3B3920AE433F58222C3
:1046CF00A2B6B3920BE433F58222A2A3E433F552E0
:1046DF00A2A4E433FFE55260629002A8E0705C9000
:1046EF0002A1E0FDA3E0FE9002A174012DF0E43ED3
:1046FF00A3F09002A3E0B50702800C9002A3EFF0A5
:10470F009002A1E4F0A3F09002A6E0FDA3E0FE4D1D
:10471F0060779002AAE0FBA3E0FCC3EB9DEC9E4008
:10472F000A9002A4EDF0EEA3F080079002A4E4F04B
:10473F00A3F09002A6E4F0A3F0804E9002A6E0FD55
:10474F00A3E0FEC3ED94FFEE94FF500B9002A6740E
:10475F00012DF0E43EA3F09002A4E0FDA3E04D6034
:10476F00289002A6E0FDA3E0FE9002AAE0FBA3E0E2
:10477F00FCC3EB9DEC9E50119002A4E4F0A3F090CB
:10478F0002A1F0A3F09002A3F09002A8E552F090DE
:10479F0002A9EFF0A2A6E433F552603E9002B0E01A
:1047AF0070389002AEE0FEA3E0FF8E048F05C37455
:1047BF00F49C74019D5023C374A89C74619D400A9E
:1047CF009002ACEEF0EFA3F080079002ACE4F0A300
:1047DF00F09002AEE4F0A3F0803E9002AEE0FEA3B4
:1047EF00E0FFC3EE94FFEF94FF500B9002AE740105
:1047FF002EF0E43FA3F09002ACE0FEA3E04E601871
:10480F009002AEE0FEA3E0FFC374A89E74619F50B8
:10481F00079002ACE4F0A3F09002B0E552F02290C2
:10482F0002C1E4F0A3F0A3F0A3F09002C5F0E58776
:10483F00A2E550055387DF80F5024950A2A9E43362
:10484F00FFC2A99002C1E0FBA3E0FCA3E0FDA3E03F
:10485F00FEEF24FF92A98B828C838DF0EE22AF8323
:10486F00E5829002C6F0EFA3F09002C6E0FEA3E04F
:10487F00FF9002C6E0F5F0A3E045F0700122C007FB
:10488F00C00612484BAC82AD83AAF0FBD006D0070E
:10489F008E008F01E4FEFFE82CFCE93DFDEE3AFEB1
:1048AF00EF3BFFC007C006C005C00412484BA882EB
:1048BF00A983AAF0FBD004D005D006D007E8B50431
:1048CF000DE9B50509EAB50605EBB5070122C007E5
:1048DF00C006C005C004124D09D004D005D006D0C3
:1048EF000780C09002C5E004F0E0FFBF0A269002E7
:1048FF00C5E4F09002C1E0FCA3E0FDA3E0FEA3E05D
:10490F00FF9002C174012CF0E43DA3F0E43EA3F04C
:10491F00E43FA3F0229002C8E070069002C9E06065
:10492F000122C2AF5389F0438E80758CF8758A309F
:10493F00D2AFD2A9D28C229002C8E4F09002C9F073
:10494F00221249249002C87401F0221249249002C5
:10495F00C97401F022AF82AE83ADF0FC9002CAEFB2
:10496F00F0EEA3F0EDA3F0ECA3F09002CAE0FCA3ED
:10497F00E0FDA3E0FEA3E0FF900370ECF0EDA3F0E9
:10498F00EEA3F0EFA3F0904B4075F04CE4124F39CB
:10499F00AC82AD83C3E49CFCE49DFD53890F438E31
:1049AF00408C8B8D8DC2ABD28E22AF82AE83ADF099
:1049BF00FC9002CEEFF0EEA3F0EDA3F0ECA3F0909D
:1049CF0002CEE0FCA3E0FDA3E0FEA3E0FF900370A6
:1049DF00ECF0EDA3F0EEA3F0EFA3F0904B4075F0E9
:1049EF004CE4124F39AC82AD83C3E49CFCE49DFDD3
:1049FF00538EF7438E048DD68CD753AFFB438E1057
:104A0F0022C022C0E0C0F0C082C083C007C006C071
:104A1F0005C004C003C002C001C000C0D075D008DB
:104A2F009002C8E0600975D0001248F275D0089066
:104A3F0002C9E0600975D0001246D975D008D0D0F0
:104A4F00D000D001D002D003D004D005D006D007BB
:104A5F00D083D082D0F0D0E0D02202008CAF82AED3
:104A6F0083ADF0FC900352EFF0EEA3F0EDA3F0EC6A
:104A7F00A3F07553007554007555007556007557A2
:104A8F000053A23F53B2FE53B1FE53B2FD53B1FDDB
:104A9F00538EFE5387BFD29EC29FC29DD2AC90034E
:104AAF0052E0FCA3E0FDA3E0FEA3E08C828D838E99
:104ABF00F0124964D29C22AF82AE83ADF0FC90031A
:104ACF0056EFF0EEA3F0EDA3F0ECA3F075580075E0
:104ADF005900755A00755B00755C0053BAFE53920E
:104AEF00FE5391FE5392FD5391FD539A7F539ADFDC
:104AFF0043AF01900356E0FCA3E0FDA3E0FEA3E06B
:104B0F008C828D838EF01249B9439A1022C29C1267
:104B1F004C1AC28E22539AEF124C1F538EEF22AFB4
:104B2F005374402FAE54C39E543FF58222AF587436
:104B3F00102FAE59C39E540FF58222E55424D2F59F
:104B4F0082E43402F583E0FFE55404543FF5548FBB
:104B5F008222E5592432F582E43403F583E0FFE540
:104B6F005904540FF5598F8222E58290035AF0E5CC
:104B7F0057700A75570190035AE0F59922E55504CD
:104B8F00541FFF90035BE556F0EFB5561890035B8B
:104B9F00E0B5560280F390035BE556F0C007124D67
:104BAF0009D00780E4E5552412FDE43403FE900399
:104BBF005AE08D828E83F08F5522E58290035CF050
:104BCF00E55C700A755C0190035CE0F59B22E55A89
:104BDF0004540FFF90035DE55BF0EFB55B18900396
:104BEF005DE0B55B0280F390035DE55BF0C00712FB
:104BFF004D09D00780E4E55A2442FDE43403FE90CA
:104C0F00035CE08D828E83F08F5A22E55770FC2271
:104C1F00E55C70FC22C0E0C082C083C0D075D018A4
:104C2F00109802802590035EE599F0E55304543FF8
:104C3F00FFB554028014E55324D2FDE43402FE90F4
:104C4F00035EE08D828E83F08F531099028024E5EE
:104C5F0056B55502801A755701E5562412F582E4B0
:104C6F003403F583E0F599E55604541FF556800398
:104C7F00755700D0D0D083D082D0E032C0E0C08250
:104C8F00C083C0D075D018E59A30E028539AFE90B3
:104C9F00035FE59BF0E55804540FFFB559028014EC
:104CAF00E5582432FDE43403FE90035FE08D828EDD
:104CBF0083F08F58E59A30E127539AFDE55BB55A9B
:104CCF0002801A755C01E55B2442F582E43403F53A
:104CDF0083E0F59BE55B04540FF55B8003755C0087
:104CEF00D0D0D083D082D0E032E5C12354019003DD
:104CFF006024FFE433F075C1342243C110229003C6
:104D0F0060E0F58222A8811818C6B2E7C602532FB9
:104D1F00AF83E582900363F0EFA3F0900365E4F0B7
:104D2F00A3F0900361E0FEA3E0FF7D10900363E02A
:104D3F00FBA3E0FC900367235401F0EB2BFBEC3358
:104D4F00FC900363EBF0ECA3F0900365E0FBA3E0B2
:104D5F00FCEB2BFBEC33FC900365EBF0ECA3F0903A
:104D6F000367E06008900365E043E001F09003659E
:104D7F00E0FBA3E0FCC3EB9EEC9F4013900365EBBD
:104D8F00C39EF0EC9FA3F0900363E043E001F0DDDE
:104D9F009B900363E0FEA3E08E82F58322AF82AE89
:104DAF0083ADF0FC90036CEFF0EEA3F0EDA3F0EC0D
:104DBF00A3F090036CE0FCA3E0FDA3E0FEA3E0FFF3
:104DCF0030E70FC3E49CF8E49DF9E49EFAE49FFBFF
:104DDF0080088C008D018E028F03900368E0FCA386
:104DEF00E0FDA3E0FEA3E0FF33E433F55D6013C302
:104DFF00E49CF55EE49DF55FE49EF560E49FF5614C
:104E0F0080088C5E8D5F8E608F61900370E55EF021
:104E1F00E55FA3F0E560A3F0E561A3F088828983E5
:104E2F008AF0EB124F39AC82AD83AEF0FF90036C7A
:104E3F00E0A3E0A3E0A3E033E433655D6013C3E4D4
:104E4F009CF8E49DF9E49EFAE49F888289838AF0B6
:104E5F00228C828D838EF0EF22124F0BBC00030247
:104E6F005466EF60FA30D502B2D1E583B4FF030286
:104E7F00547CE582B4FF0302547C258340072482CF
:104E8F00400B025466248314500302547CF582EACB
:104E9F008DF0A4A8F0EA8EF0A428F8E435F0F9EB31
:104EAF008DF0A428E935F0F9E433CA8FF0A429F97D
:104EBF00EA35F0FAEBF88EF0A429F9EA35F0FAE4C6
:104ECF0033FBEC8DF0A429F9EA35F0FAE43BFBE86B
:104EDF008FF0A42AFAEB35F0FBE433CCFD8EF0A46F
:104EEF002AFAEB35F0FBE43CFCED8FF0A42BFBEC46
:104EFF0035F0FC20E7031251EE025445AA82AB8332
:104F0F00A2F73392D1F5826002D2F7ACF0E581249B
:104F1F00F9F8E6FD08E6FE0886F008E6A2F73392F8
:104F2F00D5F5836002D2F7AFF022AF82AE83ADF03A
:104F3F00FC900374EFF0EEA3F0EDA3F0ECA3F09070
:104F4F000378E4F0A3F0A3F0A3F0900370E0FCA3C8
:104F5F00E0FDA3E0FEA3E0FF7B20C003900374E01D
:104F6F00F8A3E0F9A3E0FAA3E0FB90037C2354013C
:104F7F00F0E828F8E933F9EA33FAEB33FB900374DE
:104F8F00E8F0E9A3F0EAA3F0EBA3F0900378E0F8E0
:104F9F00A3E0F9A3E0FAA3E0FBE828F8E933F9EA84
:104FAF0033FAEB33FB900378E8F0E9A3F0EAA3F0D0
:104FBF00EBA3F0D00390037CE06008900378E0430C
:104FCF00E001F0900378E0F566A3E0F567A3E0F564
:104FDF0068A3E0F569C3E5669CE5679DE5689EE516
:104FEF00699F401F900378E566C39CF0E5679DA31A
:104FFF00F0E5689EA3F0E5699FA3F0900374E0438A
:10500F00E001F01BEB6003024F69900374E0FCA317
:10501F00E0FDA3E0FEA3E08C828D838EF02212527E
:10502F007630D1061254890250F5BC0008D2D11245
:10503F00547C0250F5C082740379001250F6E4F5E7
:10504F0062F563F564F56590569FF88C078B068AB9
:10505F000589F0E8125139E925F0EA3DEB3EEC3FC6
:10506F0054E07028E925F0F9EA3DFAEB3EFBEC3FFE
:10507F00FCE4932562F5627401933563F563740262
:10508F00933564F5647403933565F565A3A3A3A302
:10509F0008B81EB7AC65AB64AA63A962758281D2EA
:1050AF00D11251EED0E0B47E0512545D8038400627
:1050BF002482C2D58005F4247FD2D5F8125494747B
:1050CF001888F0A4F9AAF074B188F0A4FBACF074BE
:1050DF007288F0A42AFAE5F03BFBE43CFC7582866B
:0750EF001251EE12533222B0
:0600E500E478FFF6D8FDEF
:1050F6006040F82582500274FFF582E824F8501EBD
:10510600CCCBCAF9E4CC24F85014CBCAF9E4CB24AE
:10511600F8500BCAF9E4CA24F8500379002224088F
:105126006010F8C3EC13FCEB13FBEA13FAE913F96E
:10513600D8F12224F850228DF0AD06AE077F002468
:10514600F850168DF0AD067E0024F8500C8DF07DDB
:105156000024F8500475F0002224086016C000F8F8
:10516600C3EF13FFEE13FEED13FDE5F013F5F0D8D4
:04517600EFD0002254
:10569F00FF422E16F691F90CF2FD2307EEE0C4033C
:1056AF000CA3F001D814FC00A3027F0055C03F00EB
:1056BF000BF01F0001FC0F0000FF0700C0FF0300ED
:1056CF00F0FF0100FCFF0000FF7F00000040000022
:1056DF00002000000010000000080000000400007F
:1056EF0000020000000100008000000040000000E8
:1056FF00200000001000000008000000040000005F
:08570F0002000000010000008F
:10517A00AFF0AE83E582900382F0EEA3F0EFA3F0E6
:10518A00900382E0F566A3E0F567A3E0F568AA66F6
:10519A00AB67AC6890037DE0F8A3E0F9A3E0FF9069
:1051AA000380E0F569A3E0F56AAD69AE6A15697432
:1051BA00FFB56902156AED4E6020888289838FF0F7
:1051CA00125571FEA3A882A9838A828B838CF0EE82
:1051DA00125288A3AA82AB8380CF856682856783B1
:1051EA008568F0227804EC7011E58224F8500AF5FB
:1051FA0082E4C9CACBFCD8EF22EC7820058220E7EA
:10520A0013D5820122C3E933F9EA33FAEB33FBEC13
:10521A0033FCD8EA158222AC82AD83900386E0FE85
:10522A00A3E0FFBE000360121F0F900385E08C828B
:10523A008D83125288A3DEFADFF88C828D8322FCDA
:10524A00ABF0AA83A982749EF582C2D1EC30E7162C
:10525A00D2D1E9F42401F9EAF43400FAEBF4340087
:0C526A00FBECF43400FC1251EE02544541
:1000C3007905E94400601B7A01905717789375A06E
:1000D30003E493F2A308B8000205A0D9F4DAF27599
:0200E300A0FF7C
:10008C00C000A88118C0D0B6001B18B64800401597
:10009C00B66F005010C0E0E65407B406005004E6FA
:0A00AC0054F8F6D0E0D0D0D00032B6
:10527600AA82AB83A2F73392D1F5826002D2F7AC51
:10528600F02220F71130F6138883A88220F509F65C
:10529600A8837583002280FEF280F5F022AA83ABF4
:1052A600828BF0900389E0A4F8A9F08AF0E0A429A3
:1052B600F98BF0A3E0A429F58388822222A882A98B
:1052C60083AAF0FB88F090038BE0A4FCADF089F094
:1052D600E0A42DFDE435F0FE88F0A3E0A42DFDE565
:1052E600F03EFEE433FF89F0E0A42EFEE5F03FFF3A
:1052F60088F0A3E0A42EFEE5F03FFF8AF090038B32
:10530600E0A42EFEE5F03FFF8BF0E0A42FFF8AF02D
:10531600A3E0A42FFF89F0A3E0A42FFF88F0A3E069
:10532600A42F8EF08D838C8222124F0B7900E58399
:10533600B58202800D5003125494E583C395821200
:1053460050F6E5D0C465D020E117EA2DFAEB3EFB16
:10535600EC3FFC500974011250F6EC4480FC0254F8
:1053660045C3EA9DFAEB9EFBEC9FFC500FC3E49904
:10537600F9E49AFAE49BFBE49CFCB2D11251EE02EA
:105386005445AF83E582900391F0EFA3F09003912B
:10539600E0FEA3E0FF30E709C3E49EFCE49FFD8046
:1053A600048E048F0590038FE0FEA3E0FF33E43301
:1053B600FB6009C3E49EF9E49FFA80048E018F0224
:1053C600900361E9F0EAA3F08C828D83C003124D4D
:1053D6001FAE82AF83D003900391E0A3E033E433A2
:1053E6006B600CC3E49EFCE49FFD8C828D83228E51
:0453F600828F8322FD
:1000EB007800E84400600A790175A000E4F309D8B0
:1000FB00FC7892E84403600C7904900001E4F0A3CF
:04010B00D8FCD9FA49
:1053FA001255AB700AE582458345F0700122E4300C
:10540A00D112F4700BE5F0F47006E58330E701225F
:10541A0090800022700AE5F07006E58320E70122F9
:10542A00907FFF22E4AC83AB82FAF9748E0255A115
:10543A007F8E125608F58385F08222B98003EA131B
:10544A00B34010EA2401FAE43BFBE43CFC50047C40
:10545A00800582BC000EBB000BBA0008E4F5F0F52B
:10546A0083F58222A2D1E582138CF092F78B838A8C
:10547A008222E4F583F58275F080F4A2D11322E446
:10548A00F583F58275F0C0747F22E582C583F582C3
:10549A00A2D133A2D592D11392D5ECCFFCEBCEFB9D
:1054AA00EACDFA22124F0B30D502B2D1BF0009BCA5
:1054BA00000302548902547CBC0003025466E5834B
:1054CA00B4FF0BE582B4FF03025489025466E582F5
:1054DA00B4FF0302547CC395835007247F400B0218
:1054EA005466248014500302547CF582C3ED9AEE6C
:1054FA009BEF9C40111582C3EA33F9EB33FAEC3384
:10550A00FBE433FC8005E4CCCBCAF9C08275F01900
:10551A00C3E99DEA9EEB9FEC9400D5F002802D40F2
:10552A000EE99DF9EA9EFAEB9FFBEC9400FCC3B3EB
:10553A00E833F8E58233F582E58333F583C3E9334B
:10554A00F9EA33FAEB33FBEC33FC80C4B3E4F93801
:10555A00FAE43582FBE43583FCD082500405827C70
:07556A00801251EE02545DB6
:0D00B60075816A12562DE5826003020089F3
:1055710020F71430F6148883A88220F507E6A88363
:1055810075830022E280F7E49322E022E4AC82FBFF
:10559100FAF974860255A1FCABF0AA83A982749E24
:1055A100C2D1F5821251EE025445125276C3749E55
:1055B1009582403979001250F630D126E9F4240160
:1055C100F582EAF43400F583EBF43400F5F0ECF401
:1055D1003400700AE582458345F0700122E430E72A
:1055E1000F22EC20E71489828A838BF02230D10AC2
:1055F100E4F582F583F5F074802274FFF582F5837A
:10560100F5F0747F227F9E12527630D103025466E8
:10561100C3EF9582500974FFF5F0F583F582227985
:10562100001250F689828A838BF0EC227582002267
:00000001FF
